:020000040000FA
:100000000C9462000C948A000C948A000C948A0070
:100010000C948A000C948A000C948A000C948A0038
:100020000C948A000C948A000C948A000C948A0028
:100030000C948A000C9441030C948A000C948A005E
:100040000C949F020C948A000C940F030C94E90208
:100050000C948A000C948A000C948A000C948A00F8
:100060000C948A000C948A000000000024002700F1
:100070002A0000000000250028002B0000000000DE
:1000800023002600290004040404040404040202DA
:100090000202020203030303030301020408102007
:1000A0004080010204081020010204081020000012
:1000B0000008000201000003040700000000000027
:1000C0000000550411241FBECFEFD8E0DEBFCDBF26
:1000D00011E0A0E0B1E0E4E8F1E102C005900D928A
:1000E000AE3DB107D9F722E0AEEDB1E001C01D92FF
:1000F000AC39B207E1F710E0C2E6D0E004C02197C6
:10010000FE010E94BA08C136D107C9F70E948204D5
:100110000C94C0080C940000833081F028F48130E6
:1001200099F08230A9F008958730A9F08830C9F09D
:100130008430B1F4809180008F7D03C08091800075
:100140008F7780938000089584B58F7784BD08955C
:1001500084B58F7DFBCF8091B0008F778093B00006
:1001600008958091B0008F7DF9CFCF93DF93282F32
:1001700030E0F901E255FF4F8491F901E656FF4F57
:10018000D491F901EA57FF4FC491CC23A1F081111A
:100190000E948C00EC2FF0E0EE0FFF1FE458FF4FA1
:1001A000A591B491EC91ED2381E090E009F480E019
:1001B000DF91CF91089580E090E0FACF1F93CF9325
:1001C000DF93282F30E0F901E255FF4F8491F901C8
:1001D000E656FF4FD491F901EA57FF4FC491CC2363
:1001E000A9F0162F81110E948C00EC2FF0E0EE0F89
:1001F000FF1FEE58FF4FA591B4918FB7F894EC9183
:10020000111108C0D095DE23DC938FBFDF91CF9111
:100210001F910895DE2BF8CFCF93DF9390E0FC0180
:10022000E656FF4F24918A579F4FFC018491882303
:10023000D1F090E0880F991FFC01E859FF4FA5917C
:10024000B491FC01EE58FF4FC591D491623071F426
:100250009FB7F8943C91822F809583238C93E881FB
:100260002E2B28839FBFDF91CF9108958FB7F894ED
:10027000EC912E2B2C938FBFF6CF8E508064809301
:100280007C0080917A00806480937A0080917A006B
:1002900086FDFCCF809178009091790008953FB75A
:1002A000F8948091980290919902A0919A02B0914D
:1002B0009B0226B5A89B05C02F3F19F00196A11DF2
:1002C000B11D3FBFBA2FA92F982F8827BC01CD01A0
:1002D000620F711D811D911D42E0660F771F881FFF
:1002E000991F4A95D1F708958F929F92AF92BF922E
:1002F000CF92DF92EF92FF924B015C010E944F017F
:100300006B017C010E944F016C197D098E099F09C8
:10031000683E734081059105A8F321E0821A910897
:10032000A108B10888EEC80E83E0D81EE11CF11CBC
:1003300081149104A104B10429F7FF90EF90DF909C
:10034000CF90BF90AF909F908F900895AF92BF9243
:10035000CF92DF92EF92FF920F931F93CF93DF9391
:100360006C017B018B01040F151FEB015E01AE18C0
:10037000BF08C017D10759F06991D601ED91FC91E2
:100380000190F081E02DC6010995892B79F7C5010F
:10039000DF91CF911F910F91FF90EF90DF90CF9061
:1003A000BF90AF900895FC01538D448D252F30E010
:1003B000842F90E0821B930B541710F0CF96089572
:1003C00001970895FC01918D828D981761F0A28D9F
:1003D000AE0FBF2FB11D5D968C91928D9F5F9F7365
:1003E000928F90E008958FEF9FEF0895FC01918D1B
:1003F000828D981731F0828DE80FF11D858D90E088
:1004000008958FEF9FEF0895FC01918D228D892F24
:1004100090E0805C9F4F821B91098F73992708950C
:10042000FC01A48DA80FB92FB11DA35ABF4F2C9169
:10043000848D90E001968F739927848FA689B78960
:100440002C93A089B1898C91837080648C93938D57
:10045000848D981306C00288F389E02D80818F7DFA
:1004600080830895EF92FF920F931F93CF93DF93B2
:10047000EC0181E0888F9B8D8C8D98131AC0E889E0
:10048000F989808185FF15C09FB7F894EE89FF89AF
:100490006083E889F98980818370806480839FBF4D
:1004A00081E090E0DF91CF911F910F91FF90EF904D
:1004B0000895F62E0B8D10E00F5F1F4F0F7311275D
:1004C000E02E8C8D8E110CC00FB607FCFACFE88998
:1004D000F989808185FFF5CFCE010E941002F1CF0E
:1004E000EB8DEC0FFD2FF11DE35AFF4FF0829FB70C
:1004F000F8940B8FEA89FB8980818062CFCFCF93FC
:10050000DF93EC01888D8823B9F0AA89BB89E8893B
:10051000F9898C9185FD03C0808186FD0DC00FB6E1
:1005200007FCF7CF8C9185FFF2CF808185FFEDCF5F
:10053000CE010E941002E9CFDF91CF9108951F9262
:100540000F920FB60F9211242F933F938F939F9387
:10055000AF93BF938091940290919502A0919602DF
:10056000B09197023091930223E0230F2D3758F575
:100570000196A11DB11D2093930280939402909344
:100580009502A0939602B093970280919802909161
:100590009902A0919A02B0919B020196A11DB11DF2
:1005A0008093980290939902A0939A02B0939B0231
:1005B000BF91AF919F918F913F912F910F900FBE5F
:1005C0000F901F90189526E8230F0296A11DB11DCC
:1005D000D2CF1F920F920FB60F9211242F933F93F9
:1005E0004F935F936F937F938F939F93AF93BF933B
:1005F000EF93FF9386EF91E00E941002FF91EF913D
:10060000BF91AF919F918F917F916F915F914F912A
:100610003F912F910F900FBE0F901F9018951F9232
:100620000F920FB60F9211242F938F939F93EF93F6
:10063000FF93E0910602F09107028081E0910C02A5
:10064000F0910D0282FD1BC0908180910F028F5F9F
:100650008F7320911002821741F0E0910F02F0E0B9
:10066000EA50FE4F958F80930F02FF91EF919F917B
:100670008F912F910F900FBE0F901F901895808132
:10068000F4CF1F920F920FB60F921124CF92DF92E8
:10069000EF92FF922F933F934F935F936F937F93CC
:1006A0008F939F93AF93BF93EF93FF938091F40148
:1006B0009091F50183369105F4F08091F2019091CB
:1006C000F301892B09F0A6C080EB80938000109283
:1006D000F1011092F00185E090E090930101809388
:1006E00000018091F2019091F30121E08227909323
:1006F000F3018093F201C090EC01D090ED01E09005
:10070000EE01F090EF01E091F401F091F501EE0FB0
:10071000FF1FEE5FFE4F60817181072E000C880B7A
:10072000990B0E949807A70196010E944D080E940C
:1007300060072091F0013091F101C901860F971FE8
:100740009093890080938800C090EC01D090ED01D7
:10075000E090EE01F090EF01E091F401F091F501ED
:10076000EE0FFF1FEE5FFE4F60817181072E000CC0
:10077000880B990B0E949807A70196010E944D08CB
:100780000E9460072091000130910101C901860F8C
:10079000971F90938B0080938A008091F401909131
:1007A000F50101969093F5018093F401843691054B
:1007B000E4F08BEE90E00197F1F7E090F201F09019
:1007C000F30160E081E0E816F10491F58CE00E940D
:1007D000DE0061E08BE00E94DE00F092EB01E0922F
:1007E000EA011092F5011092F401FF91EF91BF918F
:1007F000AF919F918F917F916F915F914F913F91B9
:100800002F91FF90EF90DF90CF900F900FBE0F9041
:100810001F90189580EE8093800085E090E0909383
:10082000F1018093F001109201011092000159CF63
:100830008BE00E94DE0061E08CE00E94DE001092FE
:10084000EB011092EA01CDCF8C0110928000109242
:100850006F0085B1817E85B9D0E0C0E061E087E0BE
:100860000E94DE0061E08DE00E94DE0068EC70E036
:1008700080E090E00E94740160E087E00E94DE006A
:1008800060E08DE00E94DE0068EC70E080E090E0C7
:100890000E94740121960C171D0701F768EE73E0A2
:1008A00080E090E00E947401D7CFE6EFF1E0138280
:1008B000128288EE93E0A0E0B0E084839583A68363
:1008C000B78380ED91E09183808385EC90E09587FC
:1008D000848784EC90E09787868780EC90E0918B0A
:1008E000808B81EC90E0938B828B82EC90E0958BF7
:1008F000848B86EC90E0978B868B118E128E138EF4
:10090000148E0895CF93DF9300D000D0CDB7DEB71B
:10091000789484B5826084BD84B5816084BD85B5DA
:10092000826085BD85B5816085BD80916E008160E6
:1009300080936E001092810080918100826080938C
:10094000810080918100816080938100809180008E
:100950008160809380008091B10084608093B100B9
:100960008091B00081608093B00080917A008460B3
:1009700080937A0080917A00826080937A008091DF
:100980007A00816080937A0080917A0080688093F9
:100990007A001092C100E0910602F091070282E015
:1009A0008083E0910202F09103021082E091040240
:1009B000F091050280E1808310920E02E0910A021C
:1009C000F0910B0286E08083E0910802F091090229
:1009D000808180618083E0910802F091090280812A
:1009E00088608083E0910802F0910902808180682C
:1009F0008083E0910802F091090280818F7D8083DD
:100A000080EB8093800081E18093810081E080937E
:100A10006F0080E293E09093870080938600789443
:100A20008EE184B915B861E08DE00E940C0161E0AF
:100A300088E00E940C0161E087E00E940C0162E006
:100A400082E00E940C018AE097EDA3E2BCE3809370
:100A5000EC019093ED01A093EE01B093EF018BE4D4
:100A600090E09A8389836091EC017091ED0180910F
:100A7000EE019091EF012AE037ED43E25CE30E9442
:100A80007D066093EC017093ED018093EE019093ED
:100A9000EF0164E170E080E090E00E947401A981C0
:100AA000BA811197BA83A983AB2BE9F681E090E074
:100AB0009093EB018093EA014090E8015090E901A6
:100AC0005092E7014092E6018EE00E943D01909332
:100AD000E9018093E8014816590654F4893C9105D0
:100AE0002CF3A1E0B0E0B093E501A093E401DECFE8
:100AF00084159505DCF68091E4019091E50101975C
:100B0000A9F61092E5011092E401052C000C66088C
:100B10007708C301B2010E9498076B017C01C09263
:100B2000E001D092E101E092E201F092E301AC0138
:100B30009B0160E070E889E194E40E947C064B012F
:100B40005C0120E030E040EA50E40E9448081816BA
:100B500054F020E030E040EA50ECC501B4010E94BE
:100B6000E90687FF3CC08091EC019091ED01A091D6
:100B7000EE01B091EF0189839A83AB83BC83A70117
:100B80009601C501B4010E94EE0629813A814B818C
:100B90005C810E947D066093EC017093ED0180936F
:100BA000EE019093EF016091EC017091ED01809165
:100BB000EE019091EF012CEE31E548E75FE30E94F2
:100BC0004808181664F48CEE91E5A8E7BFE380931B
:100BD000EC019093ED01A093EE01B093EF0180E161
:100BE0000E943D018FE00E943D015C0182E00E9475
:100BF000B500892B09F468C020E030E047EE53E4EB
:100C0000C701B6010E94E90687FD2DC020E030E053
:100C100045E254E4C701B6010E944808181654F191
:100C2000C301B2010E9498079B01AC01C701B60144
:100C30000E94E906882329F18091DE019091DF016D
:100C400001969093DF018093DE01AEEC4A16A1E09D
:100C50005A066104710409F586399105B4F082E001
:100C600090E00E9424049EEC492E55245394612C5C
:100C7000712CD6CF84E9482E82E0582E612C712C3D
:100C8000CFCF1092DF011092DE012CE9A21623E0F3
:100C9000B2067CF084E090E0E4CFB4E94B16B2E019
:100CA0005B066104710489F70F977CF383E090E0A1
:100CB000D8CF85EDA81682E0B8067CF088E00E94C7
:100CC000B50061E0892BA1F01092E0011092E101E2
:100CD0001092E2011092E301E9CE98EAA91692E09F
:100CE000B90694F788E00E94B500019769F760E0C3
:100CF00088E00E94DE00E8CF5058BB27AA270E9458
:100D000094060C940E080E94000838F00E94070810
:100D100020F039F49F3F19F426F40C94FD070EF4EB
:100D2000E095E7FB0C94F707E92F0E941F0858F3A2
:100D3000BA17620773078407950720F079F4A6F5C0
:100D40000C9441080EF4E0950B2EBA2FA02D0B0148
:100D5000B90190010C01CA01A0011124FF27591B00
:100D600099F0593F50F4503E68F11A16F040A22F06
:100D7000232F342F4427585FF3CF46953795279577
:100D8000A795F0405395C9F77EF41F16BA0B620B76
:100D9000730B840BBAF09150A1F0FF0FBB1F661FBD
:100DA000771F881FC2F70EC0BA0F621F731F841F00
:100DB00048F4879577956795B795F7959E3F08F026
:100DC000B0CF9395880F08F09927EE0F97958795E8
:100DD00008950E94D30708F481E008950E94020755
:100DE0000C940E080E94070858F00E94000840F07A
:100DF00029F45F3F29F00C94F70751110C94420835
:100E00000C94FD070E941F0868F39923B1F3552342
:100E100091F3951B550BBB27AA276217730784070D
:100E200038F09F5F5F4F220F331F441FAA1FA9F3A3
:100E300035D00E2E3AF0E0E832D091505040E69591
:100E4000001CCAF72BD0FE2F29D0660F771F881FF2
:100E5000BB1F261737074807AB07B0E809F0BB0BE5
:100E6000802DBF01FF2793585F4F3AF09E3F5105F9
:100E700078F00C94F7070C9442085F3FE4F3983E37
:100E8000D4F3869577956795B795F7959F5FC9F7E2
:100E9000880F911D9695879597F90895E1E0660F63
:100EA000771F881FBB1F621773078407BA0720F0DC
:100EB000621B730B840BBA0BEE1F88F7E095089545
:100EC0000E9467076894B1110C94420808950E942B
:100ED000270888F09F5798F0B92F9927B751B0F09D
:100EE000E1F0660F771F881F991F1AF0BA95C9F7AE
:100EF00014C0B13091F00E944108B1E008950C9403
:100F00004108672F782F8827B85F39F0B93FCCF3B5
:100F1000869577956795B395D9F73EF4909580952A
:100F2000709561957F4F8F4F9F4F0895E89409C04A
:100F300097FB3EF490958095709561957F4F8F4F0C
:100F40009F4F9923A9F0F92F96E9BB279395F69522
:100F5000879577956795B795F111F8CFFAF4BB0FA0
:100F600011F460FF1BC06F5F7F4F8F4F9F4F16C004
:100F7000882311F096E911C0772321F09EE8872F8E
:100F8000762F05C0662371F096E8862F70E060E04A
:100F90002AF09A95660F771F881FDAF7880F9695C3
:100FA000879597F90895990F0008550FAA0BE0E867
:100FB000FEEF16161706E807F907C0F0121613061B
:100FC000E407F50798F0621B730B840B950B39F45B
:100FD0000A2661F0232B242B252B21F408950A26C1
:100FE00009F4A140A6958FEF811D811D089597F901
:100FF0009F6780E870E060E008959FEF80EC0895BF
:1010000000240A94161617061806090608950024E7
:101010000A9412161306140605060895092E039461
:10102000000C11F4882352F0BB0F40F4BF2B11F4D5
:1010300060FF04C06F5F7F4F8F4F9F4F089557FD34
:101040009058440F551F59F05F3F71F04795880F36
:1010500097FB991F61F09F3F79F0879508951216CD
:1010600013061406551FF2CF4695F1DF08C0161679
:1010700017061806991FF1CF86957105610508942A
:101080000895E894BB2766277727CB0197F9089541
:101090000E94D30708F48FEF08950E9460080C9413
:1010A0000E080E94000838F00E94070820F09523DF
:1010B00011F00C94F7070C94FD0711240C944208CE
:1010C0000E941F0870F3959FC1F3950F50E0551FC4
:1010D000629FF001729FBB27F00DB11D639FAA278D
:1010E000F00DB11DAA1F649F6627B00DA11D661FDC
:1010F000829F2227B00DA11D621F739FB00DA11DFD
:10110000621F839FA00D611D221F749F3327A00DB6
:10111000611D231F849F600D211D822F762F6A2F52
:1011200011249F5750409AF0F1F088234AF0EE0FB7
:10113000FF1FBB1F661F771F881F91505040A9F7E4
:101140009E3F510580F00C94F7070C9442085F3FD6
:10115000E4F3983ED4F3869577956795B795F79520
:10116000E7959F5FC1F7FE2B880F911D9695879598
:1011700097F90895EE0FFF1F0590F491E02D099463
:10118000F894FFCF05000000190032004B00640006
:101190007D009600AF00C700DF00F7000F012601B9
:1011A0003E0155016B0181019701AD01C201D601DC
:1011B000EA01FE01110224023602470258026802C7
:1011C000780287029602A302B102BD02C902D402CC
:1011D000DE02E802F102F902000307030D03120325
:1011E00016031A031C031E032003200320031E03FF
:1011F0001C031A03160312030D0307030003F9026D
:10120000F102E802DE02D402C902BD02B102A30269
:1012100096028702780268025802470236022402C8
:101220001102FE01EA01D601C201AD01970181015F
:101230006B0155013E0126010F01F700DF00C700D9
:10124000AF0096007D0064004B00320019000000E2
:10125000000000003202A601D3017F020402E20175
:02126000F60195
:107E0000112484B714BE81FFF0D085E080938100F7
:107E100082E08093C00088E18093C10086E0809377
:107E2000C20080E18093C4008EE0C9D0259A86E02C
:107E300020E33CEF91E0309385002093840096BBD3
:107E4000B09BFECF1D9AA8958150A9F7CC24DD24C4
:107E500088248394B5E0AB2EA1E19A2EF3E0BF2EE7
:107E6000A2D0813461F49FD0082FAFD0023811F036
:107E7000013811F484E001C083E08DD089C08234E0
:107E800011F484E103C0853419F485E0A6D080C0E4
:107E9000853579F488D0E82EFF2485D0082F10E0AE
:107EA000102F00270E291F29000F111F8ED06801E7
:107EB0006FC0863521F484E090D080E0DECF843638
:107EC00009F040C070D06FD0082F6DD080E0C81688
:107ED00080E7D80618F4F601B7BEE895C0E0D1E017
:107EE00062D089930C17E1F7F0E0CF16F0E7DF06D8
:107EF00018F0F601B7BEE89568D007B600FCFDCFD4
:107F0000A601A0E0B1E02C9130E011968C91119780
:107F100090E0982F8827822B932B1296FA010C0160
:107F200087BEE89511244E5F5F4FF1E0A038BF0790
:107F300051F7F601A7BEE89507B600FCFDCF97BE46
:107F4000E89526C08437B1F42ED02DD0F82E2BD052
:107F50003CD0F601EF2C8F010F5F1F4F84911BD097
:107F6000EA94F801C1F70894C11CD11CFA94CF0C13
:107F7000D11C0EC0853739F428D08EE10CD085E9AC
:107F80000AD08FE07ACF813511F488E018D01DD067
:107F900080E101D065CF982F8091C00085FFFCCF94
:107FA0009093C60008958091C00087FFFCCF809118
:107FB000C00084FD01C0A8958091C6000895E0E648
:107FC000F0E098E1908380830895EDDF803219F02E
:107FD00088E0F5DFFFCF84E1DECF1F93182FE3DFCA
:107FE0001150E9F7F2DF1F91089580E0E8DFEE27F6
:047FF000FF270994CA
:027FFE00040479
:00000001FF
